:02000000FE2FD1
:100DB40083160313981CDA2E6330831203139900ED
:100DC4000800003083120313A9000030A800253066
:100DD400A7008030A600F726831203138C1EEE2E84
:100DE4008C121A08013EDA26EE2E831603138601AE
:100DF4008312031386012608AA002708AB002808DB
:100E0400AC002908AD0006300310AA0DAB0DAC0DE3
:100E1400AD0DFF3E031D062F2D08F3002C08F20034
:100E24002B08F1002A08F0000030AE002430AF0097
:100E3400F430B0000030B1002608B2002708B30037
:100E44002808B4002908B50006300310B20DB30D0C
:100E5400B40DB50DFF3E031D272FB209B309B40924
:100E6400B509B20A0319B30A0319B40A0319B50A76
:100E74003208AE0733080318330F412F422FAF0750
:100E840034080318340F472F482FB00735080318C8
:100E9400350AB1073108F7003008F6002F08F500CD
:100EA4002E08F4006F277108FA007008F900831601
:100EB40003138C1279089900181118129816181334
:100EC400831203139817181318168316031307179E
:100ED4008717831203138C12080083120313A101D2
:100EE400F31F812FF009F109F209F309F00A03193C
:100EF400F10A0319F20A0319F30AA101A10AF71F5F
:100F0400922FF409F509F609F709F40A0319F50A09
:100F14000319F60A0319F70A0130F8007808A10644
:100F24000030A5000030A4000030A3000030A2006F
:100F340073087204710470040319E72FA001A00A56
:100F4400F31BB22F0130F8000310F00DF10DF20D78
:100F5400F30DF80BA62F0130F8007808A007A22F94
:100F64000130F8000310A20DA30DA40DA50DF80B7C
:100F7400B42F73087702031DC92F72087602031D6C
:100F8400C92F71087502031DC92F70087402031C50
:100F9400DA2F7008F4027108031C710FF50272084D
:100FA400031C720FF6027308031C730FF70222145A
:100FB40001300310F30CF20CF10CF00CFF3E031D96
:100FC400DB2F0130A002031DB22F21080319F52FD6
:100FD400A209A309A409A509A20A0319A30A0319CA
:100FE400A40A0319A50A2508F3002408F20023081B
:0C0FF400F1002208F00008008301E32E49
:02400E007AFD39
:00000001FF
