:0400000007EF00F016
:100008005D8209ED00F070EF05F00600FACF49F0C7
:10001800FBCF4AF0E9CF4BF0EACF4CF0E1CF4DF0FF
:10002800E2CF4EF0D9CF4FF0DACF50F0F3CF51F006
:10003800F4CF52F0F6CF53F0F7CF54F0F8CF55F095
:10004800F5CF56F05DC057F05EC058F05FC059F06C
:1000580060C05AF09D9AF29EF29C9EAA65D0770ED7
:10006800AE18D8A415D0AE506AEC05F07EEC05F0B9
:1000780053EC05F00B0E486E260E476E5E0EE82E0A
:10008800FED7472EFCD7482EFAD778EC05F04CD08F
:10009800730EAE18D8A415D0AE506AEC05F07BEC00
:1000A80005F053EC05F00B0E486E260E476E5E0EFB
:1000B800E82EFED7472EFCD7482EFAD778EC05F065
:1000C80033D0610EAE18D8A416D0AE506AEC05F045
:1000D8007EEC05F046EC05F0150E486E4B0E476EAB
:1000E800BE0EE82EFED7472EFCD7482EFAD700D0F2
:1000F80078EC05F019D0640EAE18D8A415D0AE501F
:100108006AEC05F07EEC05F039EC05F0150E486E4A
:100118004B0E476EBE0EE82EFED7472EFCD7482E54
:10012800FAD700D078EC05F09D8AF28EF28C5AC08E
:1001380060F059C05FF058C05EF057C05DF056C01F
:10014800F5FF55C0F8FF54C0F7FF53C0F6FF52C083
:10015800F4FF51C0F3FF50C0DAFF4FC0D9FF4EC0C3
:10016800E2FF4DC0E1FF4CC0EAFF4BC0E9FF4AC0C7
:10017800FBFF49C0FAFF5D921100800E286E7F0ECA
:10018800296E440E2A6E000E196EC80E1A6E420EA3
:100198001B6E43C013F044C014F027EC05F013C0E5
:1001A80016F014C017F015C018F0ADEC02F016C028
:1001B80025F017C026F018C027F033EC02F025C050
:1001C80034F026C035F027C036F0B9EC01F034C061
:1001D80043F035C044F04328030E4458D8B0120009
:1001E800E6EC04F00FC013F010C014F027EC05F093
:1001F80013C028F014C029F015C02AF0C00E196EDB
:100208007F0E1A6E440E1B6E43C013F044C014F0E8
:1002180027EC05F013C016F014C017F015C018F03D
:10022800ADEC02F016C025F017C026F018C027F074
:1002380033EC02F025C034F026C035F027C036F084
:10024800B9EC01F034C043F035C044F0BA9A43A089
:1002580002D0BA8801D0BA9843C045F044C046F0ED
:10026800D89046324532D890463245324550BB6E1A
:100278001200800E286E7F0E296E440E2A6E000E24
:10028800196EC80E1A6E420E1B6E43C013F044C09E
:1002980014F027EC05F013C016F014C017F015C0C1
:1002A80018F0ADEC02F016C025F017C026F018C003
:1002B80027F033EC02F025C034F026C035F027C013
:1002C80036F0B9EC01F034C043F035C044F04328AF
:1002D800030E4458D8B01200E6EC04F00FC013F037
:1002E80010C014F027EC05F013C028F014C029F052
:1002F80015C02AF0C00E196E7F0E1A6E440E1B6EC2
:1003080043C013F044C014F027EC05F013C016F0F6
:1003180014C017F015C018F0ADEC02F016C025F0A7
:1003280017C026F018C027F033EC02F025C034F0CF
:1003380026C035F027C036F0B9EC01F034C043F0E0
:1003480035C044F0BD9A43A002D0BD8801D0BD9805
:1003580043C045F044C046F0D89046324532D89064
:10036800463245324550BE6E120036C038F0396A02
:100378003A6A3534383601E339803850426E425093
:10038800D8A409D0000E346E000E356E000E366EFD
:10039800000E376E1200170E386E34C039F035C0B3
:1003A8003AF036C03BF038283C6E04D0D8903B3247
:1003B8003A3239323C2EFAD739503D6E358EFF0E1F
:1003C8003416FF0E3516000E361634503E6E355074
:1003D8003F6E3650406E416A8E0E425E42AE16D077
:1003E8004250800A8F0FD8B009D0000E346E000E2C
:1003F800356E000E366E000E376E1200D890413200
:1004080040323F323E32423EF9D715D0170E426491
:100418000FD0000E346E000E356E000E366E000ED4
:10042800376E1200D8903E363F3640364136420687
:100438004250D8A4F7D73D50D8B408D0411E401E2A
:100448003F1E3E6C000E3F22402241223EC034F047
:100458003FC035F040C036F041C037F0120027C029
:100468002BF02C6A2D6A26342B3601E32C802B5076
:100478002E6E2E50D8A407D0000E256E000E266EC4
:10048800000E276E12002AC02BF02C6A2D6A293420
:100498002B3601E32C802B50336E3350D8A407D071
:1004A800000E256E000E266E000E276E12003350C9
:1004B8007B0F2E2627C033F02A50331A800E3316AE
:1004C800268E298EFF0E2816FF0E2916000E2A16D4
:1004D800000E2F6E000E306E000E316E070E326E5B
:1004E80025A006D028502F26295030222A50312204
:1004F800D890273226322532D890283629362A36FF
:10050800322EEED7090E326E25A006D028502F269F
:10051800295030222A503122D890273226322532CB
:10052800D890313230322F32322EEED72FC001F030
:1005380030C002F031C003F02EC004F033C005F023
:10054800EDEC03F001C025F002C026F003C027F04F
:10055800120018C01CF01D6A1E6A17341C3601E30D
:100568001D801C50236E2350D8A407D0000E166E91
:10057800000E176E000E186E12001BC01CF01D6ACC
:100588001E6A1A341C3601E31D801C50246E245048
:10059800D8A407D0000E166E000E176E000E186E47
:1005A8001200000E206E000E216E000E226E2450E6
:1005B800890F235E18C024F01B50241A800E2416BD
:1005C800178EFF0E1616FF0E1716000E18161A8E27
:1005D800FF0E1916FF0E1A16000E1B16180E1F6EA8
:1005E800D8902036213622361950165C1A501758E2
:1005F8001B501858D8A007D01950165E1A50175A11
:100608001B50185A2080D8901636173618361F2EC9
:10061800E7D720C001F021C002F022C003F023C0B8
:1006280004F024C005F0EDEC03F001C016F002C0A0
:1006380017F003C018F01200000E0001696F67AFD1
:100648000AD0671F661F651F646D000E6523662349
:100658006723010E696F63AF0AD0631F621F611FB2
:10066800606D000E612362236323010E691B000E77
:100678006A6F000E6B6F000E6C6F000E6D6F645129
:10068800651166116711D8B42AD0010E686F06D0BB
:10069800D8906437653766376737682B67AFF8D700
:1006A800D8906A376B376C376D376451605D655128
:1006B80061596651625967516359D8A009D064518C
:1006C800605F6551615B6651625B6751635B6A811C
:1006D800D8906733663365336433682FE1D769513F
:1006E800D8B408D06D1F6C1F6B1F6A6D000E6B238A
:1006F8006C236D236AC060F06BC061F06CC062F05F
:100708006DC063F01200000E0A6E08AE0AD0081E13
:10071800071E061E056C000E062207220822010E7F
:100728000A6E04AE0AD0041E031E021E016C000EDF
:10073800022203220422010E0A1A000E0B6E000E7A
:100748000C6E000E0D6E000E0E6E05500610071092
:100758000810D8B42AD0010E096E06D0D8900536F4
:10076800063607360836092A08AEF8D7D8900B3669
:100778000C360D360E360550015C065002580750EF
:10078800035808500458D8A009D00550015E0650F7
:10079800025A0750035A0850045A0B80D89008325E
:1007A800073206320532092EE1D70A50D8B408D0EC
:1007B8000E1E0D1E0C1E0B6C000E0C220D220E229E
:1007C8000BC001F00CC002F00DC003F00EC004F025
:1007D80012000450D8B405D0015002100310D8A458
:1007E8000CD0000E016E000E026E000E036E120099
:1007F800042AD890033202320132000E0114066E28
:10080800000E0214076EFE0E0314086E0650071041
:100818000810D8B40CD0ECD7042A010E0126000E1B
:100828000222000E0322D890033202320132000E57
:100838000114066E000E0214076EFF0E0314086EF4
:10084800065007100810D8B406D0E6D70406D8908A
:1008580001360236033602BE03D0020E0460F6D714
:1008680004A0029ED8900432045003120550D8A464
:10087800038E01C001F002C002F003C003F01200B1
:10088800000E0001686F000E696F000E6A6F000E9F
:100898006B6F6451651166116711D8B42AD0010EC7
:1008A8006C6F06D0D89064376537663767376C2B1E
:1008B80067AFF8D7D890683769376A376B376451AC
:1008C800605D655161596651625967516359D8A095
:1008D80009D06451605F6551615B6651625B675125
:1008E800635B6881D89067336633653364336C2FF4
:1008F800E1D768C060F069C061F06AC062F06BC09F
:1009080063F01200000E0001606F240E616FF40E98
:10091800626F000E636F6DC071F06EC072F06FC0D1
:1009280073F070C074F0060ED89071377237733751
:100938007437E82EF9D771C064F072C065F073C0DF
:1009480066F074C067F044EC04F000016005AF6E17
:10095800AC94AC98AC8AAC9CAB88AB9CAB8E949CAA
:10096800948E9D8A9E9AF28EF28C1200000E0001DF
:10097800606F240E616FF40E626F000E636F6EC0BD
:1009880070F06FC071F0D89070377137D8907037A9
:100998007137703B713BF00E711770510F0B71136B
:1009A800F00E701770C064F071C065F0666B676B0D
:1009B80020EC03F000016005CB6E6EC05BF06FC0E9
:1009C8005CF01200000E016E240E026EF40E036E2F
:1009D800000E046E5BC011F05CC012F0113A123ABE
:1009E800F00E121611500F0B1212F00E111611C044
:1009F80005F012C006F0076A086A87EC03F001C028
:100A08000FF002C010F012009590959283808392A7
:100A180075EC05F0000E0001766F190E756F030E68
:100A28006F6FD00E6E6FBAEC04F060EC05F0800EBC
:100A380000016D6F250E6E6F000E6F6F000E706FE8
:100A480086EC04F0FFD713C001F014C002F0036A6B
:100A58008E0E046E000E056EEDEC03F001C013F06F
:100A680002C014F003C015F01200000E446E4B0EC5
:100A7800436E3DEC01F0000E446E320E436EC1EC45
:100A880000F01200000E446E320E436E3DEC01F091
:100A9800000E446E4B0E436EC1EC00F01200000EC7
:100AA800446E4B0E436E3DEC01F0000E446E4B0E4F
:100AB800436EC1EC00F0120094949492BD86BD84FC
:100AC800BA86BA84CA80CA82CA841200016EACA2ED
:100AD800FED701C0ADFF12005D905D92000108EFE6
:100AE80005F0839083921200839083921200838092
:0A0AF80083921200839083821200A3
:020000040020DA
:08000000FFFFFFFFFFFFFFFF00
:020000040030CA
:0E000000000C1E1EFF8181FF0FC00FE00F409D
:00000001FF
